{
  "address": "0x30b3eb87B8Ad366727eFCDd9AF7b1a7787C9fD23",
  "abi": [
    {
      "inputs": [
        {
          "internalType": "address",
          "name": "priceFeedAddress",
          "type": "address"
        }
      ],
      "stateMutability": "nonpayable",
      "type": "constructor"
    },
    {
      "inputs": [],
      "name": "FundMe__NotOwner",
      "type": "error"
    },
    {
      "anonymous": false,
      "inputs": [
        {
          "indexed": true,
          "internalType": "address",
          "name": "from",
          "type": "address"
        },
        {
          "indexed": false,
          "internalType": "uint256",
          "name": "amount",
          "type": "uint256"
        }
      ],
      "name": "Funded",
      "type": "event"
    },
    {
      "inputs": [],
      "name": "MINIMUM_USD",
      "outputs": [
        {
          "internalType": "uint256",
          "name": "",
          "type": "uint256"
        }
      ],
      "stateMutability": "view",
      "type": "function"
    },
    {
      "inputs": [],
      "name": "cheaperWithdraw",
      "outputs": [],
      "stateMutability": "payable",
      "type": "function"
    },
    {
      "inputs": [],
      "name": "fund",
      "outputs": [],
      "stateMutability": "payable",
      "type": "function"
    },
    {
      "inputs": [
        {
          "internalType": "address",
          "name": "funder",
          "type": "address"
        }
      ],
      "name": "getAddressToAmountFunded",
      "outputs": [
        {
          "internalType": "uint256",
          "name": "",
          "type": "uint256"
        }
      ],
      "stateMutability": "view",
      "type": "function"
    },
    {
      "inputs": [
        {
          "internalType": "uint256",
          "name": "index",
          "type": "uint256"
        }
      ],
      "name": "getFunder",
      "outputs": [
        {
          "internalType": "address",
          "name": "",
          "type": "address"
        }
      ],
      "stateMutability": "view",
      "type": "function"
    },
    {
      "inputs": [],
      "name": "getOwner",
      "outputs": [
        {
          "internalType": "address",
          "name": "",
          "type": "address"
        }
      ],
      "stateMutability": "view",
      "type": "function"
    },
    {
      "inputs": [],
      "name": "getPriceFeed",
      "outputs": [
        {
          "internalType": "contract AggregatorV3Interface",
          "name": "",
          "type": "address"
        }
      ],
      "stateMutability": "view",
      "type": "function"
    },
    {
      "inputs": [],
      "name": "s_priceFeed",
      "outputs": [
        {
          "internalType": "contract AggregatorV3Interface",
          "name": "",
          "type": "address"
        }
      ],
      "stateMutability": "view",
      "type": "function"
    },
    {
      "inputs": [],
      "name": "withdraw",
      "outputs": [],
      "stateMutability": "nonpayable",
      "type": "function"
    }
  ],
  "transactionHash": "0x31551fa38796d0b5c66e1b15283740bdccb1f992ab48d3ab2c447596d447e099",
  "args": [
    "0xD4a33860578De61DBAbDc8BFdb98FD742fA7028e"
  ],
  "numDeployments": 6,
  "solcInputHash": "6a2347914b3a74f5914f4ab72be2e3e0",
  "bytecode": "0x60a06040523480156200001157600080fd5b506040516200159738038062001597833981810160405281019062000037919062000120565b3373ffffffffffffffffffffffffffffffffffffffff1660808173ffffffffffffffffffffffffffffffffffffffff1660601b8152505080600260006101000a81548173ffffffffffffffffffffffffffffffffffffffff021916908373ffffffffffffffffffffffffffffffffffffffff1602179055505062000152565b600080fd5b600073ffffffffffffffffffffffffffffffffffffffff82169050919050565b6000620000e882620000bb565b9050919050565b620000fa81620000db565b81146200010657600080fd5b50565b6000815190506200011a81620000ef565b92915050565b600060208284031215620001395762000138620000b6565b5b6000620001498482850162000109565b91505092915050565b60805160601c611411620001866000396000818161024c0152818161049b015281816106e901526108df01526114116000f3fe6080604052600436106100865760003560e01c8063893d20e811610059578063893d20e8146101355780639e87a5cd14610160578063b60d42881461018b578063be2693f014610195578063d7b4750c1461019f57610086565b80630343fb251461008b5780630ec3b027146100c85780633ccfd60b146100f35780636b69a5921461010a575b600080fd5b34801561009757600080fd5b506100b260048036038101906100ad9190610c6e565b6101dc565b6040516100bf9190610cb4565b60405180910390f35b3480156100d457600080fd5b506100dd610224565b6040516100ea9190610d2e565b60405180910390f35b3480156100ff57600080fd5b5061010861024a565b005b34801561011657600080fd5b5061011f61048a565b60405161012c9190610cb4565b60405180910390f35b34801561014157600080fd5b5061014a610497565b6040516101579190610d58565b60405180910390f35b34801561016c57600080fd5b506101756104bf565b6040516101829190610d2e565b60405180910390f35b6101936104e9565b005b61019d6106e7565b005b3480156101ab57600080fd5b506101c660048036038101906101c19190610d9f565b610975565b6040516101d39190610d58565b60405180910390f35b60008060008373ffffffffffffffffffffffffffffffffffffffff1673ffffffffffffffffffffffffffffffffffffffff168152602001908152602001600020549050919050565b600260009054906101000a900473ffffffffffffffffffffffffffffffffffffffff1681565b7f000000000000000000000000000000000000000000000000000000000000000073ffffffffffffffffffffffffffffffffffffffff163373ffffffffffffffffffffffffffffffffffffffff16146102cf576040517f579610db00000000000000000000000000000000000000000000000000000000815260040160405180910390fd5b60005b60018054905081101561037a576000600182815481106102f5576102f4610dcc565b5b9060005260206000200160009054906101000a900473ffffffffffffffffffffffffffffffffffffffff16905060008060008373ffffffffffffffffffffffffffffffffffffffff1673ffffffffffffffffffffffffffffffffffffffff1681526020019081526020016000208190555050808061037290610e2a565b9150506102d2565b50600067ffffffffffffffff81111561039657610395610e73565b5b6040519080825280602002602001820160405280156103c45781602001602082028036833780820191505090505b50600190805190602001906103da929190610b64565b5060003373ffffffffffffffffffffffffffffffffffffffff164760405161040190610ed3565b60006040518083038185875af1925050503d806000811461043e576040519150601f19603f3d011682016040523d82523d6000602084013e610443565b606091505b5050905080610487576040517f08c379a000000000000000000000000000000000000000000000000000000000815260040161047e90610f45565b60405180910390fd5b50565b6802b5e3af16b188000081565b60007f0000000000000000000000000000000000000000000000000000000000000000905090565b6000600260009054906101000a900473ffffffffffffffffffffffffffffffffffffffff16905090565b6802b5e3af16b1880000610528600260009054906101000a900473ffffffffffffffffffffffffffffffffffffffff16346109bd90919063ffffffff16565b1015610569576040517f08c379a000000000000000000000000000000000000000000000000000000000815260040161056090610fb1565b60405180910390fd5b6001339080600181540180825580915050600190039060005260206000200160009091909190916101000a81548173ffffffffffffffffffffffffffffffffffffffff021916908373ffffffffffffffffffffffffffffffffffffffff160217905550346000803373ffffffffffffffffffffffffffffffffffffffff1673ffffffffffffffffffffffffffffffffffffffff168152602001908152602001600020600082825461061a9190610fd1565b925050819055503373ffffffffffffffffffffffffffffffffffffffff167f5af8184bef8e4b45eb9f6ed7734d04da38ced226495548f46e0c8ff8d7d9a524346040516106679190610cb4565b60405180910390a26106e5336040518060400160405280600481526020017f73656e6400000000000000000000000000000000000000000000000000000000815250346040518060400160405280600381526020017f77656900000000000000000000000000000000000000000000000000000000008152506109f9565b565b7f000000000000000000000000000000000000000000000000000000000000000073ffffffffffffffffffffffffffffffffffffffff163373ffffffffffffffffffffffffffffffffffffffff161461076c576040517f579610db00000000000000000000000000000000000000000000000000000000815260040160405180910390fd5b600060018054806020026020016040519081016040528092919081815260200182805480156107f057602002820191906000526020600020905b8160009054906101000a900473ffffffffffffffffffffffffffffffffffffffff1673ffffffffffffffffffffffffffffffffffffffff16815260200190600101908083116107a6575b5050505050905060005b815181101561087a57600082828151811061081857610817610dcc565b5b6020026020010151905060008060008373ffffffffffffffffffffffffffffffffffffffff1673ffffffffffffffffffffffffffffffffffffffff1681526020019081526020016000208190555050808061087290610e2a565b9150506107fa565b50600067ffffffffffffffff81111561089657610895610e73565b5b6040519080825280602002602001820160405280156108c45781602001602082028036833780820191505090505b50600190805190602001906108da929190610b64565b5060007f000000000000000000000000000000000000000000000000000000000000000073ffffffffffffffffffffffffffffffffffffffff164760405161092190610ed3565b60006040518083038185875af1925050503d806000811461095e576040519150601f19603f3d011682016040523d82523d6000602084013e610963565b606091505b505090508061097157600080fd5b5050565b60006001828154811061098b5761098a610dcc565b5b9060005260206000200160009054906101000a900473ffffffffffffffffffffffffffffffffffffffff169050919050565b6000806109c983610a9b565b90506000670de0b6b3a764000085836109e29190611027565b6109ec91906110b0565b9050809250505092915050565b610a9584848484604051602401610a139493929190611169565b6040516020818303038152906040527f5d1365c9000000000000000000000000000000000000000000000000000000007bffffffffffffffffffffffffffffffffffffffffffffffffffffffff19166020820180517bffffffffffffffffffffffffffffffffffffffffffffffffffffffff8381831617835250505050610b3b565b50505050565b6000808273ffffffffffffffffffffffffffffffffffffffff1663feaf968c6040518163ffffffff1660e01b815260040160a06040518083038186803b158015610ae457600080fd5b505afa158015610af8573d6000803e3d6000fd5b505050506040513d601f19601f82011682018060405250810190610b1c9190611249565b5050509150506402540be40081610b3391906112c4565b915050919050565b60008151905060006a636f6e736f6c652e6c6f679050602083016000808483855afa5050505050565b828054828255906000526020600020908101928215610bdd579160200282015b82811115610bdc5782518260006101000a81548173ffffffffffffffffffffffffffffffffffffffff021916908373ffffffffffffffffffffffffffffffffffffffff16021790555091602001919060010190610b84565b5b509050610bea9190610bee565b5090565b5b80821115610c07576000816000905550600101610bef565b5090565b600080fd5b600073ffffffffffffffffffffffffffffffffffffffff82169050919050565b6000610c3b82610c10565b9050919050565b610c4b81610c30565b8114610c5657600080fd5b50565b600081359050610c6881610c42565b92915050565b600060208284031215610c8457610c83610c0b565b5b6000610c9284828501610c59565b91505092915050565b6000819050919050565b610cae81610c9b565b82525050565b6000602082019050610cc96000830184610ca5565b92915050565b6000819050919050565b6000610cf4610cef610cea84610c10565b610ccf565b610c10565b9050919050565b6000610d0682610cd9565b9050919050565b6000610d1882610cfb565b9050919050565b610d2881610d0d565b82525050565b6000602082019050610d436000830184610d1f565b92915050565b610d5281610c30565b82525050565b6000602082019050610d6d6000830184610d49565b92915050565b610d7c81610c9b565b8114610d8757600080fd5b50565b600081359050610d9981610d73565b92915050565b600060208284031215610db557610db4610c0b565b5b6000610dc384828501610d8a565b91505092915050565b7f4e487b7100000000000000000000000000000000000000000000000000000000600052603260045260246000fd5b7f4e487b7100000000000000000000000000000000000000000000000000000000600052601160045260246000fd5b6000610e3582610c9b565b91507fffffffffffffffffffffffffffffffffffffffffffffffffffffffffffffffff821415610e6857610e67610dfb565b5b600182019050919050565b7f4e487b7100000000000000000000000000000000000000000000000000000000600052604160045260246000fd5b600081905092915050565b50565b6000610ebd600083610ea2565b9150610ec882610ead565b600082019050919050565b6000610ede82610eb0565b9150819050919050565b600082825260208201905092915050565b7f43616c6c206661696c6564000000000000000000000000000000000000000000600082015250565b6000610f2f600b83610ee8565b9150610f3a82610ef9565b602082019050919050565b60006020820190508181036000830152610f5e81610f22565b9050919050565b7f4469646e27742073656e6420656e6f7567680000000000000000000000000000600082015250565b6000610f9b601283610ee8565b9150610fa682610f65565b602082019050919050565b60006020820190508181036000830152610fca81610f8e565b9050919050565b6000610fdc82610c9b565b9150610fe783610c9b565b9250827fffffffffffffffffffffffffffffffffffffffffffffffffffffffffffffffff0382111561101c5761101b610dfb565b5b828201905092915050565b600061103282610c9b565b915061103d83610c9b565b9250817fffffffffffffffffffffffffffffffffffffffffffffffffffffffffffffffff048311821515161561107657611075610dfb565b5b828202905092915050565b7f4e487b7100000000000000000000000000000000000000000000000000000000600052601260045260246000fd5b60006110bb82610c9b565b91506110c683610c9b565b9250826110d6576110d5611081565b5b828204905092915050565b600081519050919050565b60005b8381101561110a5780820151818401526020810190506110ef565b83811115611119576000848401525b50505050565b6000601f19601f8301169050919050565b600061113b826110e1565b6111458185610ee8565b93506111558185602086016110ec565b61115e8161111f565b840191505092915050565b600060808201905061117e6000830187610d49565b81810360208301526111908186611130565b905061119f6040830185610ca5565b81810360608301526111b18184611130565b905095945050505050565b600069ffffffffffffffffffff82169050919050565b6111db816111bc565b81146111e657600080fd5b50565b6000815190506111f8816111d2565b92915050565b6000819050919050565b611211816111fe565b811461121c57600080fd5b50565b60008151905061122e81611208565b92915050565b60008151905061124381610d73565b92915050565b600080600080600060a0868803121561126557611264610c0b565b5b6000611273888289016111e9565b95505060206112848882890161121f565b945050604061129588828901611234565b93505060606112a688828901611234565b92505060806112b7888289016111e9565b9150509295509295909350565b60006112cf826111fe565b91506112da836111fe565b9250827f7fffffffffffffffffffffffffffffffffffffffffffffffffffffffffffffff048211600084136000841316161561131957611318610dfb565b5b817f8000000000000000000000000000000000000000000000000000000000000000058312600084126000841316161561135657611355610dfb565b5b827f8000000000000000000000000000000000000000000000000000000000000000058212600084136000841216161561139357611392610dfb565b5b827f7fffffffffffffffffffffffffffffffffffffffffffffffffffffffffffffff05821260008412600084121616156113d0576113cf610dfb565b5b82820290509291505056fea26469706673582212209bb9ddc16b057efb62d1fbf5483d4de79d9f76f5dd7ec1647fbf318991c0675f64736f6c63430008080033",
  "devdoc": {
    "author": "Elmond",
    "details": "This implements price feed as a our library",
    "kind": "dev",
    "methods": {
      "fund()": {
        "details": "This implements price feeds as our library"
      }
    },
    "title": "A contract for crowd  funding",
    "version": 1
  },
  "userdoc": {
    "kind": "user",
    "methods": {
      "fund()": {
        "notice": "This function funds this contrat"
      }
    },
    "notice": "this contract is to demo a sample funding contract",
    "version": 1
  },
  "storageLayout": {
    "storage": [
      {
        "astId": 60,
        "contract": "contracts/FundMe.sol:FundMe",
        "label": "s_addressToAmountFunded",
        "offset": 0,
        "slot": "0",
        "type": "t_mapping(t_address,t_uint256)"
      },
      {
        "astId": 69,
        "contract": "contracts/FundMe.sol:FundMe",
        "label": "s_funders",
        "offset": 0,
        "slot": "1",
        "type": "t_array(t_address)dyn_storage"
      },
      {
        "astId": 79,
        "contract": "contracts/FundMe.sol:FundMe",
        "label": "s_priceFeed",
        "offset": 0,
        "slot": "2",
        "type": "t_contract(AggregatorV3Interface)45"
      }
    ],
    "types": {
      "t_address": {
        "encoding": "inplace",
        "label": "address",
        "numberOfBytes": "20"
      },
      "t_array(t_address)dyn_storage": {
        "base": "t_address",
        "encoding": "dynamic_array",
        "label": "address[]",
        "numberOfBytes": "32"
      },
      "t_contract(AggregatorV3Interface)45": {
        "encoding": "inplace",
        "label": "contract AggregatorV3Interface",
        "numberOfBytes": "20"
      },
      "t_mapping(t_address,t_uint256)": {
        "encoding": "mapping",
        "key": "t_address",
        "label": "mapping(address => uint256)",
        "numberOfBytes": "32",
        "value": "t_uint256"
      },
      "t_uint256": {
        "encoding": "inplace",
        "label": "uint256",
        "numberOfBytes": "32"
      }
    }
  }
}